:040000000128FE2FA6
:100E02003100151555309600AA3096009514080049
:100E120020008C0122008C0123008C0121008C0116
:100E220025008C0108006030200095009A3098005F
:100E32009012803097001D2F901E202F212F1D2FE2
:100E4200222F08007008F2007208F3007108F20005
:100E52007208F400310015177408920073089100AB
:100E62001514332F1518362F372F332F382F130819
:100E72003A2F08007008F3007308F4007108F300B9
:100E82007308F5004430F3007308310095047508C7
:100E9200920074089100720893008731012787310C
:100EA200522F31009518562F572F522F582F0800C6
:100EB200873109278731EB30F600760822008C054E
:100EC2000630F0007030F100873123278731F600B9
:100ED2007608F7000030F0007030F10087312327E8
:100EE2008731F6007608F8007703031D792F7A2FF1
:100EF200C12FB52FB52F0030F0007030F100023055
:100F0200F6007608F20087313B27873120000C116A
:100F12000C16F12F0030F0007030F1000330F600B3
:100F22007608F20087313B27873120000C150C161A
:100F3200F12F0030F0007030F100F201F20A873137
:100F42003B27873120000C150C12F12F0030F000E6
:100F52007030F100F201F20A87313B27873120001D
:100F62000C150C12F12FF12F7808013A03197C2F7E
:100F7200033A03198B2F013A03199A2FA72FF12F46
:100F82000630F0007030F100F201F20A87313B279F
:100F92008731E52F20000C150C12F12F20000C11C7
:100FA2000C16F12F20000C150C16F12F0030F0005A
:100FB2007030F100F201F20A87313B2787312000BD
:100FC2000C150C12F12FF12F7808013A0319CB2FCF
:100FD200033A0319CF2F013A0319D32FD72FF12F39
:100FE2008731142787310630F0007030F100F201AA
:0E0FF20087313B278731FC2F01282000592F23
:020000040001F9
:08000E00ECF7F2DDFCFFFFFF3F
:00000001FF
