:040000000128FE2FA6
:100DDA003100151555309600AA3096009514080072
:100DEA0020008C0122008C0123008C0121008C013F
:100DFA0025008C01080021008C1623008C168030F7
:100E0A0021009E0015309D000430F1003D30F000B5
:100E1A00F00B0D2FF10B0D2F003208007008F200B5
:100E2A007208F3007108F2007208F4003100151715
:100E3A0074089200730891001514232F1518262F91
:100E4A00272F232F282F13082A2F08007008F300B2
:100E5A007308F4007108F3007308F5004430F300D6
:100E6A00730831009504750892007408910072089D
:100E7A0093008631ED268731422F31009518462F8F
:100E8A00472F422F482F080021009D144C2F9D18F0
:100E9A004F2F502F4C2F512F1C08F200F3017208CC
:100EAA00F300F20100307205F500FF307305F60019
:100EBA0075081B04F7007608F8007708F000780830
:100ECA00F100672F08008631F52687318731002720
:100EDA008731F330F900790822008C0587314927D8
:100EEA0087317108FB007008FA00FC010030F0003D
:100EFA007030F100873113278731F9007908FC0037
:100F0A0000307B02CD3003197A02031C8D2F8E2FFD
:100F1A00F02FC92FC92F0030F0007030F1000230D5
:100F2A00F9007908F20087312B27873120000C114C
:100F3A008C15FC2F0030F0007030F1000330F900FE
:100F4A007908F20087312B27873120000C158C1580
:100F5A00FC2F0030F0007030F100F201F20A873104
:100F6A002B27873120000C158C11FC2F0030F00044
:100F7A007030F100F201F20A87312B278731200005
:100F8A000C158C11FC2FFC2F7C08013A0319902FA9
:100F9A00033A03199F2F013A0319AE2FBB2FFC2FD7
:100FAA00F02F20000C158C11FC2F20000C118C1531
:100FBA00FC2F20000C158C15FC2F0030F00070302F
:100FCA00F100F201F20A87312B27873120000C1534
:100FDA008C11FC2FFC2F7C08013A0319D62F033AF7
:100FEA000319DA2F013A0319DE2FE22FFC2FFC2F07
:060FFA0001282000682F11
:020000040001F9
:08000E00ECF7F2DFFCFFFFFF3D
:00000001FF
