:040000000128FE2FA6
:100ECA0021000C1723000C17803021009E0081306E
:100EDA009D000430F1003D30F000F00B722FF10B51
:100EEA00722F0032080021009D167B2F9D187E2F3D
:100EFA007F2F7B2F802F1C08F200F3017208F3006A
:100F0A00F20100307205F500FF307305F60075082E
:100F1A001B04F7007608F8007708F0007808F1005B
:100F2A00962F08007008F2007208F9007108F200A2
:100F3A007208FA00310015177A08920079089100B0
:100F4A001514A72F1518AA2FAB2FA72FAC2F1408EB
:100F5A00F200F3017208F300F20100307205F500A5
:100F6A00FF307305F60075081304F7007608F800D9
:100F7A007708F0007808F100C22F0800DF30FB0084
:100F8A007B0821008C05DF30FB007B0820008C05E4
:100F9A00A001A1010030F0007030F10087319727DD
:100FAA00873171082000A1007008A0009530200642
:100FBA00323003192106031DE32FE42FE62F8C1686
:100FCA00E62F873165278731EA2F873178278731DE
:100FDA0071082000A1007008A0002130FC007630C2
:100FEA00FB00FB0BF62FFC0BF62F0000EA2FEA2F73
:060FFA0001282000C32FB6
:020000040001F9
:08000E00ECF6F3DFFCFFFFFF3D
:00000001FF
